:020000040800F2
:10000000C00A0020051B00089F9601089F96010862
:100010006BA501089F9601089F9601089F9601080D
:100020009F9601089F9601089F960108A15D02080E
:100030009F9601089F960108455D0208AD6302087E
:100040009F9601089F9601089F9601089F960108B8
:100050009F9601089F9601089F9601089F960108A8
:100060009F9601089F9601089F960108491A00086B
:10007000979601089F9601089F9601089F96010890
:100080009F9601089F9601089F9601089F96010878
:100090009F960108BD1D00089F9601089F960108C4
:1000A0009F9601089D1D00087D1D00089F96010870
:1000B0009F960108715501081D60010891220208F0
:1000C0008D220208AD570108A722020895220208D6
:1000D000ED5F0108992202085D600108C560010812
:1000E0009F9601089F9601089F9601089F96010818
:1000F0007F9E01089F9601089F9601089F96010820
:100100009F9601089F9601089F9601089F960108F7
:100110009F9601089F9601089F9601089F960108E7
:100120009F9601089F9601089F9601089F960108D7
:100130009F9601089F9601089F9601089F960108C7
:100140009F960108F93600089F9601084F63020840
:10015000313B01089F9601087B2202088122020898
:100160009F9601089F9601089F9601089F96010897
:100170002DE9F04F93B0CDE90A32DDE91C530E931F
:1001800053EC102BCDE90801104619468DED060BF6
:100190001E9E16F031FC80B1DDE906014FF0FF3202
:1001A000C54B16F051FC40B9DDE906014FF0FF32B6
:1001B0006FF4801316F02AFC70B1DDE908019DEDA3
:1001C000060B0E9B1E96CDE91C53DDE90A3213B0D7
:1001D000BDE8F04F00F088B90022DDE906010023F8
:1001E00016F014FC002800F03381DDE906A303F1CA
:1001F000004BCBF30A5016F48063A0F2FF3008BF27
:1002000006250F9316F026F99BA3D3E9002316F0D9
:100210008BF99BA3D3E9002315F0D0FFCBF3130494
:10022000894644F07F5180460022A44B504641F459
:10023000401115F0C1FF94A3D3E9002316F074F91F
:1002400002460B464046494615F0B8FF16F006FC3C
:10025000044616F0FFF88EA3D3E9002380468946B2
:1002600016F062F90022964B15F0A8FF16F0F6FB87
:1002700089A3D3E9002307464946404616F054F9BE
:1002800080463846894616F0E5F885A3D3E9002371
:1002900016F04AF902460B464046494615F08CFFD7
:1002A00002460B46CDE90C2316F03EF9DDE90C239E
:1002B000804689461046194615F080FF0022CDE998
:1002C0001001804B4046494616F058FA00227E4BFA
:1002D00015F074FF02460B464046494616F04EFAAA
:1002E00000227A4B15F06AFF02460B46404649460B
:1002F00016F044FADDE90C238046894600204FF0D1
:10030000804115F059FF02460B464046494615F01C
:1003100055FF02460B46DDE9100116F02FFA07F2F1
:10032000FF3700226A4B15F049FF00223B0516F00B
:10033000FBF852465B468046894616F085FB00284E
:1003400040F08980CDE90C8904F16303C72B34BFE9
:100350000427052731051BD553A3D3E900235046B5
:10036000594616F067FB00287FD051A3D3E900233C
:100370005046594616F04AFB002876D00027A54281
:10038000C6BF2C1B04F1FF3500253C4646F48066B1
:100390000E9B9F422CBF4FF00008A3EB070816F0FE
:1003A000020903D0002F18BF4FF000083CB1DDE96F
:1003B0000C235046594616F0E1F982468B46DDE99A
:1003C00006010022002316F021FB10B10BF10043BF
:1003D0009B46DDE9080126F40063CDE90183DDE9F0
:1003E0000A324BEC10AB009500F07EF802465FB38A
:1003F000DDE9091316F0200F00F10105089E0CBF7E
:1004000065204520B047DDE908010523002205935A
:100410000A23002CCDE9023207F1FF374FEAD473EB
:10042000B8BF64422A46019304970A9B00941AF0CD
:1004300004FD0246B9F1000F06D00B9BC41A0B9BBA
:100440001A190E9BA34245D8104613B0BDE8F08F91
:10045000DDE906ABCDE60022404649461A4B16F0D0
:100460008DF9013CCDE90C016EE7002D90D00F9B7A
:10047000002B8DD0013D8BE7FB799F501344D33F78
:10048000B3C8608B288AC63F61436F63A787D23F9A
:1004900071A379094F930A401655B5BBB16B024061
:1004A000EF39FAFE422EE63F2D431CEBE2361A3FAF
:1004B0000000000080842E41FFFFEF7F0000F83F26
:1004C0000000E03F00002C400000244000001840E5
:1004D0000000F03F2020DDE90913089DA847013402
:1004E000ADE700BF000000002DE9F04F5BEC10AB62
:1004F00097B0CDE90501DDE92057CDE90723504646
:1005000052465B465946229E16F076FA70B903238E
:10051000CDE902760193B04B0093DDE90501DDE9F9
:1005200007231AF0AAFB17B0BDE8F08F4FF0FF3297
:100530006FF480135046594616F068FA28B1042328
:10054000CDE902760193A54BE6E74FF0FF32504626
:100550005946A34B16F078FA68B1A24A06F0040394
:10056000002B08BF0322A04B1CBF13460422CDE979
:1005700002760192D0E7504693A3D3E9002359466F
:1005800016F062FA38B992A3D3E9002350465946CF
:1005900016F03CFA68B1DDE90723DDE905014BEC13
:1005A00010ABCDE92176209517B0BDE8F04FFFF7ED
:1005B000DFBD002200235046594616F027FA0028D6
:1005C00000F09A805B4652460020002115F0F4FDB1
:1005D000012382468B46099316F4806400F08E80D6
:1005E000092D40F28E80002430210EABA5F10902C6
:1005F0000134202C03F8011BA5EB040901D094421F
:10060000F6D15946504616F029FA784B054603EBC9
:10061000C90393ED007B8DED0A7B15F01BFF0246AD
:100620000B465046594615F0C7FDDDE90A2315F083
:100630007BFF02460B46CDE90C2316F037FA8046C5
:1006400015F0F8FE02460B46DDE90C0115F0B4FD8D
:1006500002460B46CDE90C230022654B16F0F4F957
:10066000002851D008F10108404615F0E3FE02468B
:100670000B46DDE90A0116F0D3F910B14FF000087E
:100680000135B9F1000F50D1284615F0E3FE0246BE
:100690000B465046594615F08FFD0022544B8046BC
:1006A000894616F0B3F930B1002240464946504B16
:1006B00016F0CAF910B1E80700D501350A210EABD2
:1006C0001A19202C0AD095FBF1F001FB105530359A
:1006D00002F8015B013405460028F2D106F003025E
:1006E000012A57D1002F55D0099A12B916F00C0FD4
:1006F00000D0013F302245E009906DE74FF0060938
:100700007FE7A94600247CE70022DDE90C01384B95
:1007100016F07CF90028B4D1B8F1000F02D018F01F
:10072000010FAED008F10108ABE70A210EAB23445C
:10073000202C0ED0B8FBF1F001FB1082B8F1090FAC
:1007400002F1300209F1FF3904F1010403F8012B31
:1007500011D83021A1440EAA202CAFD0A14504F11C
:1007600001030AD11C4609F158030DEB03092E239E
:1007700009F8203CA2E78046DAE7A1541C46EBE7E3
:100780001A550134A74205D9202CF9D1CDE90276BA
:100790000194C1E6202CF9D0099A3AB12D2104F137
:1007A00058026A4402F8201C0134EFE7710704D5AF
:1007B00004F158022B216A44F4E73207E6D504F12C
:1007C000580220216A44EDE70000000065CDCD41CC
:1007D0000000000065CDCDC12F8E0208338E0208C7
:1007E000FFFFEF7F268E02082B8E0208388E02084C
:1007F0000000E03F0000000007B588B10BA3D3E97B
:1008000000230949C1E90223CDE900234FF0FF325B
:100810004FF0FF33086921F030F803B05DF804FBB6
:1008200000220023EDE700BFE00A00200DD50155AE
:10083000200000000348044B834202D0034B03B165
:1008400018477047C4300020C4300020000000006A
:10085000064B0749C91A891048BF0131491003D016
:10086000044B0BB101481847704700BFC43000204B
:10087000C43000200000000010B5064C237843B9B6
:10088000FFF7D8FF044B13B10448AFF300800123F6
:10089000237010BDC02C00200000000020D20208F0
:1008A00008B5054B1BB105490548AFF30080BDE80D
:1008B0000840FFF7CDBF00BF00000000400D002042
:1008C00020D20208A3F5803A704700BF174B002BD7
:1008D00008BF134B9D46FFF7F5FF00218B460F46DF
:1008E0001348144A121A21F01EFD0E4B002B00D0A3
:1008F00098470D4B002B00D09847002000210400A2
:100900000D000D48002802D00C48AFF3008016F00F
:100910008FFA2000290019F046FE16F077FA00BF82
:10092000000008000000000000000000C00A0020D5
:10093000C00A0020602F002000000000000000001E
:1009400070B5094B0246197818240023074DD8B218
:10095000814201D8FF2005E0013304FB03F6AE5DC0
:100960009642F4D170BD00BFCA2C0020400D00207B
:1009700030B52B4C87B0237863BB2A492A480EF048
:10098000FDFB054620B3294C2949206819F09DFA42
:100990002849206819F099FA18F07FFE18F07EFEB9
:1009A000254B264A0093264940F27523206819F00A
:1009B0008CFA24492B46244A206819F086FA2846E6
:1009C00001F072F82149206819F07FFA00BEFDE7B6
:1009D00001232370134B03201D7801F03BF8E8B18D
:1009E000124C1B49206819F070FA18F056FE18F0E6
:1009F00055FE0D4B17491A7804925A7803929A784B
:100A00000292DA7801921A790092134A5B79002DEA
:100A100008BF0A462068114919F057FA07B030BDDF
:100A2000C82C0020C12C0020C22C0020F40D002076
:100A3000B373020854720208D3770208597202088D
:100A400062720208717202086E72020886720208EF
:100A50009772020846720208387202089C720208F5
:100A60002DE9F04F0368B74A23F47F4323F00703CF
:100A70009342044689B000F0FE8367D8B24A93429D
:100A800000F016831FD8A2F5A022934200F09A81AD
:100A900002F58022934200F00D82042000F0DAFF7C
:100AA000002800F01382A94DA949286819F00DFA11
:100AB00018F0F3FD18F0F2FD2268A64922F47F42F7
:100AC00022F007023CE0A44A934200F0FE8402F5C3
:100AD00040329342E1D10079FFF732FFFF2800F066
:100AE000F58118229D4B02FB0033D4F805209A6053
:100AF000637A022B12D1032000F0ACFF70B1934D4A
:100B00009749286819F0E1F918F0C7FD18F0C6FDFB
:100B1000A37AE27A9349286819F0D7F9032000F004
:100B200099FF002800F0D281884D8D49286819F07E
:100B3000CCF918F0B2FD18F0B1FDD4F805208A49BF
:100B4000286809B0BDE8F04F19F0BFB9874A934251
:100B500000F0508500F2A18002F17F42934200F044
:100B6000378502F54032934297D10079FFF7E8FECE
:100B7000FF28054600F0AA817D4F3B78022B40F00C
:100B8000DF831823754E03FB00639B68013300F07D
:100B90009D81032000F05EFF78B1DFF8B0817049DD
:100BA000D8F8000019F091F918F077FD18F076FDEB
:100BB0007049D8F8000019F088F9032000F04AFFC6
:100BC00078B1DFF888816649D8F8000019F07DF91E
:100BD00018F063FD18F062FD6749D8F8000019F0BD
:100BE00074F9032000F036FF98B1DFF860815C49AA
:100BF000D8F8000019F069F918F04FFD18F04EFD13
:100C0000182303FB05635D499A68D8F8000019F0C2
:100C10005CF9182303FB056620790222584BB16862
:100C20000BF0D6FB0446032000F014FF68B1474DDB
:100C30004B49286819F049F918F02FFD18F02EFDDE
:100C400022465049286819F040F9002C00F04B83E7
:100C50003E4D4D49286819F038F94C49286819F07B
:100C600034F918F01AFD18F019FD494B494A009360
:100C700049494FF4BE73286819F027F947492346BC
:100C8000474A286819F021F9204600F00DFF454930
:100C9000286819F01AF900BEFDE7434A93427FF431
:100CA000FCAE0079FFF74CFEFF2800F00F81032017
:100CB00000F0D0FE254D58B12949286819F005F9F2
:100CC00018F0EBFC18F0EAFC3849286819F0FDF838
:100CD000032000F0BFFE70B12149286819F0F5F833
:100CE00018F0DBFC18F0DAFCB4F805302279304952
:100CF000286819F0EAF866890320F6B200F0AAFE27
:100D000060B11749286819F0E0F818F0C6FC18F02F
:100D1000C5FC32462749286819F0D7F80027DFF8C4
:100D20009C80DFF89CA00B3406F1FF39FBB29E4299
:100D3000286800F23F84204909B0BDE8F04F19F05F
:100D4000C4B800BFA0000902A0000600F40D0020F6
:100D5000BB770208C0770208A0000601580D0020EA
:100D600097720208F67402081E750208A0000607B2
:100D7000C92C002087750208A0750208BF750208FB
:100D800003780208E8750208B37302085472020877
:100D9000F47702085972020862720208717202083E
:100DA0006E72020886720208A00009074E770208D8
:100DB0006E7702089F770208B2730208B6770208BE
:100DC000368E0208032000F045FE98B1A54DA649D5
:100DD000286819F07AF818F060FC18F05FFCD4F875
:100DE0001230A249019323890093E388A2882868DE
:100DF00019F06BF8FFF7BCFD00224FF6FF7350218E
:100E0000CDE90023084664230EF058F9054618B3CF
:100E1000944C9749206819F058F89649206819F0C1
:100E200054F818F03AFC18F039FC934B934A0093AD
:100E30009349C923206819F048F892492B46924AF1
:100E4000206819F042F8284600F02EFE8F492068ED
:100E500019F03BF800BEFDE7012108460EF0AEF99F
:100E6000054618B37F4C8249206819F02EF8814955
:100E7000206819F02AF818F010FC18F00FFC7E4BCF
:100E80007E4A00937E49CD23206819F01EF87D49E3
:100E90002B467D4A206819F018F8284600F004FE19
:100EA0007B49206819F011F800BEFDE70022794B5C
:100EB0001A700BE00379032B08D1002590F816B0C7
:100EC000DFF8E88100F11707AB4502D809B0BDE8AB
:100ED000F08F7B195B787E5D023B012B08D8A81C44
:100EE00002224146384421F0F4F9002800F0C08382
:100EF00001362E44F5B2E7E7494618F8012F0136CE
:100F000018F0E3FF730740F0F9835146286818F0A2
:100F1000DCFFF3E317F80960002E00F00C8409F100
:100F2000010307EB030AFB5C09F102089A1E012A80
:100F3000B84424D8731E4FF0000A079317E003202B
:100F400000F088FD88B14849286818F0BEFF18F005
:100F5000A4FB18F0A3FB08F1010218F80A3012F8FC
:100F60000A204D49286818F0B0FF0AF1020A079BD1
:100F70009A45E4DB01364E445FFA86F9D8E3083B34
:100F8000012BF7D8731EC8F1010808EB0A0293423F
:100F900011DC032000F05EFD0028EBD03249286808
:100FA00018F093FF18F079FB18F078FB3B4928689C
:100FB00018F08BFFDEE71AF8012F394928680793EC
:100FC00018F083FF079BE0E7364B1B78032B3FF6B7
:100FD0007DAF31460096A27A637AD4F8050043EAE1
:100FE000022363F30F01E27A01230EF087F804462F
:100FF000032000F02FFD60B11B49286818F065FF41
:1010000018F04BFB18F04AFB22462749286818F0D5
:101010005CFF1CB31649286818F057FF154928686B
:1010200018F053FF18F039FB18F038FB124B134A35
:10103000009313494FF48B73286818F046FF114949
:101040002346114A286818F040FF204600F02CFD86
:101050000E49286818F039FF00BEFDE701220D4B4C
:1010600026E700BFF40D002097720208D272020832
:10107000B373020854720208F47702085972020826
:1010800062720208717202086E72020886720208A9
:10109000FC720208C92C00205A750208B2730208BB
:1010A000D2730208CA2C00200B74020805780208CB
:1010B000032000F0CFFC60B18C4D8D49286818F0FA
:1010C00004FF18F0EAFA18F0E9FA8A49286818F0DB
:1010D000FCFE032000F0BEFCB0B1844D84492868BA
:1010E00018F0F3FE18F0D9FA18F0D8FA23798249EB
:1010F000039363790293A3790193E3790093237AAD
:10110000627A286818F0E1FE02217C4A207B0BF00D
:101110004BF9252805463DD1022000F09BFC60B12B
:10112000724C7749206818F0D0FE18F0B6FA18F023
:10113000B5FA7449206818F0C8FE012108460EF07F
:101140003DF8054600283FF4B1AE684C6E49206872
:1011500018F0BBFE6D49206818F0B7FE18F09DFA34
:1011600018F09CFA6A4B6B4A00936B4940F23113BA
:10117000206818F0AAFE69492B46694A206818F0D1
:10118000A4FE284600F090FC6649206818F09DFEF9
:1011900000BEFDE7032000F05DFC68B1534E5449EA
:1011A000306818F092FE18F078FA18F077FA2A46AC
:1011B0005D49306818F089FE25B34C4C52492068CF
:1011C00018F083FE5149206818F07FFE18F065FA88
:1011D00018F064FA4E4B4F4A00934F494FF49B73FB
:1011E000206818F072FE4D492B464D4A206818F0D1
:1011F0006CFE284600F058FC4A49206818F065FE4D
:1012000000BEFDE718224949A6880B78207B5A4387
:10121000474C0133A5180B700121EE80A0540DF04E
:1012200099FF054620B3314C3749206818F04DFE30
:101230003649206818F049FE18F02FFA18F02EFAF7
:10124000334B344A009334494FF4A173206818F0AB
:101250003CFE32492B46324A206818F036FE2846BA
:1012600000F022FC2F49206818F02FFE00BEFDE799
:101270000222304B1CE60079FFF762FBFF283FF4A7
:1012800025AE18222A4BA17902FB0033627942EA8B
:1012900001229A81237A022B12D1032000F0DAFB7B
:1012A00070B1124D1249286818F00FFE18F0F5F9C8
:1012B00018F0F4F9637AA27A1F49286818F005FE3D
:1012C000032000F0C7FB00283FF400AE074D08499B
:1012D000286818F0FAFD18F0E0F918F0DFF9B4F812
:1012E000052016492CE403233B70EFE5F40D0020A4
:1012F00097720208307402084774020805780208E1
:101300007274020877740208B373020854720208F8
:10131000F4770208597202086272020871720208B8
:101320006E72020886720208BF740208CA2C00207E
:10133000580D0020C92C0020387502086775020876
:10134000032B5FD11823B24C03FB00439A894FF65D
:10135000FF739A423FF4BAAD032000F07BFB60B10B
:10136000AC4EAD49306818F0B0FD18F096F918F0A1
:1013700095F9AA49306818F0A8FD032000F06AFB2F
:1013800060B1A44EA449306818F09FFD18F085F9AB
:1013900018F084F9A249306818F097FD032000F096
:1013A00059FB80B19B4E9C49306818F08EFD18F0B7
:1013B00074F918F073F9182303FB05449949A289BD
:1013C000306818F082FD0DF00DFF082303203B70FC
:1013D00000F040FB60B18F4C8F49206818F075FD1C
:1013E00018F05BF918F05AF98F49206818F06DFD74
:1013F00000231A4619468D48006809B0BDE8F04F31
:1014000025F0CDBA082B7FF461AD032000F022FB5C
:1014100060B1804D8049286818F057FD18F03DF9FB
:1014200018F03CF97D49286818F04FFD804B1B7877
:10143000012B25D1032000F00DFB60B1754D7649DD
:10144000286818F042FD18F028F918F027F97949B2
:10145000286818F03AFD032000F0FCFA0028C7D0F5
:101460006C4D6D49286818F030FD18F016F918F029
:1014700015F9B4F805207049286818F026FDB7E77B
:10148000022BB5D1032000F0E5FA60B1614D62494D
:10149000286818F01AFD18F000F918F0FFF86749ED
:1014A000286818F012FD032000F0D4FA00289FD01D
:1014B000584D5949286818F008FD18F0EEF818F052
:1014C000EDF8B4F805205E49D6E78079FFF738FAE1
:1014D0005C4A13780BB1013B13701821157800FB9F
:1014E00001112A1AD2B24A4C03B202EB420203EBB8
:1014F0004303D200A84288BF0022214404EBC3006A
:1015000020F0F7FE3F26FF204FF0FF327F274FF0FD
:10151000010C7C2105EB450304EBC3034A4C032D6E
:1015200003F1180331D9494B1B78002B3FF4CEACA3
:10153000012108460DF042FE054600283FF4B6ACF6
:10154000344C4349206818F0C0FC4249206818F028
:10155000BCFC18F0A2F818F0A1F83F4B3F4A0093EA
:101560003F494FF4D473206818F0AFFC3D492B4637
:101570003D4A206818F0A9FC284600F095FA3B493E
:10158000206818F0A2FC00BEFDE7013503F8180C36
:1015900043F8102C23F80C2C43F8084C03F8046C87
:1015A00003F8177C03F816CC03F8151C03F8141C79
:1015B000EDB2B4E7414614F8012F18F086FCB945A6
:1015C00003DD5146286818F080FC0137FFF7AEBBF9
:1015D0000079FFF7B5F9FF2818BF18220C4B1EBF82
:1015E000A17902FB0032D170182202FB00330022E5
:1015F0009A706BE40079FFF7A3F9FF283FF466AC1B
:101600001822034B02FB0033A2791A715EE400BF7B
:10161000580D0020F40D002097720208877502080B
:101620001E7602084476020873760208B80D002080
:10163000CB2C002091760208AB760208D676020801
:10164000F1760208CA2C002000007AC4C92C0020C0
:10165000B373020854720208F47702085972020840
:1016600062720208717202086E7202081D77020827
:10167000032000F0EFF9554D58B15549286818F08E
:1016800024FC18F00AF818F009F85249286818F0F4
:101690001CFC032000F0DEF9C0B14D49286818F0A9
:1016A00014FC17F0FAFF17F0F9FF94F90D304A49CE
:1016B000049363790393A3790293E3790193237AE3
:1016C0000093637AA27A286818F0FFFB032000F0E9
:1016D000C1F960B13E49286818F0F7FB17F0DDFF4B
:1016E00017F0DCFF5A463D49286818F0EEFB00264B
:1016F000DFF81C91DFF8E8A004F11608F3B29B456F
:1017000028683FF6F9AB364918F0DFFB032000F0FC
:10171000A1F958B12E49286818F0D7FB17F0BDFF82
:1017200017F0BCFF2F49286818F0CFFB4FF00009D5
:10173000D945FFF4EFAB032000F08CF958B12449F0
:10174000286818F0C2FB17F0A8FF17F0A7FF26497A
:10175000286818F0BAFB0DF045FD0646032000F09E
:1017600079F960B11A49286818F0AFFB17F095FFB6
:1017700017F094FF32461D49286818F0A6FB002E8A
:101780003FF422AC1A49286818F09FFB19492868D1
:1017900018F09BFB17F081FF17F080FF164B174ADC
:1017A000009317494FF48773286818F08EFB15498A
:1017B0003346154A286818F088FB304600F074F963
:1017C0001249286818F081FB00BEFDE7F40D0020E7
:1017D000977202082D730208517302089873020869
:1017E000B2730208BB730208D5730208EA730208D9
:1017F000B373020854720208F4770208597202089F
:1018000062720208717202086E7202088672020821
:10181000B57302082DE9F74F324D4FF0FF312868BC
:1018200025F01CFA00244FF002092F4F3323DFF874
:10183000C8A0DFF8C8808DF804300222BAF8001082
:1018400098F8000001AB8DF8054087F800900AF089
:10185000EBFD0646032000F0FDF880B1DFF8A0B0F4
:101860002249DBF8000018F030FB17F016FF17F0E4
:1018700015FF32461E49DBF8000018F026FB4FF03A
:10188000FF31286825F0EAF90123BAF8001098F82A
:1018900000003B700AF0B4FD0646032000F0DAF8C1
:1018A00080B1DFF85C801149D8F8000018F00DFB1A
:1018B00017F0F3FE17F0F2FE32460E49D8F800009A
:1018C00018F003FB11344FF0FF312868E4B225F023
:1018D000C5F9552CAAD1002003B0BDE8F04F23F084
:1018E0004DBE00BFB80D0020CB2C0020977202081F
:1018F0000778020832780208842C0020CC2C0020C3
:10190000F40D002013B53E4B4FF4007201931823E1
:101910003C4900933C48002325F09EFB01281FD042
:101920003A4C3B49206818F0D0FA3A49206818F040
:10193000CCFA17F0B2FE17F0B1FE374B374A0093DE
:1019400037494523206818F0C0FA3649364A2068DE
:1019500018F0BBFA3549206818F0B7FA00BEFDE769
:1019600000214FF6FF7025F0D0FA314B1860F8B91E
:10197000264C2749206818F0A8FA2649206818F054
:10198000A4FA17F08AFE17F089FE234B234A00932E
:1019900023494823206818F098FA2249254A2068EC
:1019A00018F093FA2449206818F08FFA00BEFDE77A
:1019B000042025F09FFA214B1860F8B9134C144904
:1019C000206818F082FA1349206818F07EFA17F0A0
:1019D00064FE17F063FE104B104A009310494B232E
:1019E000206818F072FA0F49154A206818F06DFA4D
:1019F0001449206818F069FA00BEFDE702B010BD76
:101A0000C40D00205C78020815180008F40D0020B1
:101A1000B373020854720208277902086578020835
:101A20006272020885780208777802089D780208B9
:101A3000C00D0020BF780208DC780208BC0D002031
:101A4000F778020810790208014818F04BBA00BF75
:101A5000C80D00200B4B02461B7883B10A4B1B7844
:101A6000834234BF00200120084B1B7833B1084B60
:101A70001B78134113F0010F08BF002070470120AD
:101A8000F2E700BF9E3000209D300020CD2C0020CA
:101A90009C300020024B0349186818F016BA00BFAA
:101AA000F40D00203379020870B50C4C0C49064641
:101AB000206818F00AFA02F0BDF90546206802F025
:101AC0008FF93046FFF7E6FF284602F089F92068D3
:101AD0000449BDE8704018F0F8B900BFF40D0020CB
:101AE00035790208377902080348044A0449121A72
:101AF000921017F0D5BD00BF8001000880010008DA
:101B0000602F002008B5154B83F30A8800F030F8E9
:101B1000FFF7EAFF124B13498B4212D30020124BFE
:101B200012498B4218D3FEF7D1FE186850F82240B4
:101B3000586840F82240013298688242F5D30C334D
:101B4000EAE70022F8E71C6844F8220001325C68EA
:101B5000A242F8D30833E4E70022F8E700000020AF
:101B600028D2020834D2020834D2020834D2020841
:101B70004FF48041124B134A70B59A60D3F8882015
:101B8000114D42F47002C3F88820104A05F5005444
:101B900091664FF0FF3222660D4A62660222C3F858
:101BA000D020BFF34F8FBFF36F8F4FF4403600202C
:101BB00002F008F90020E66002F0F6F82E6170BD30
:101BC00000ED00E00000000800800044009000509C
:101BD000F7FF3700014B1860704700BF702F0020DF
:101BE000054B1860054B1B6F03F00703032B01D156
:101BF00021F068BE704700BF782F002000800050A1
:101C000040B1054A1378012B04D80370013300203A
:101C10001370704701207047CE2C00202DE9F04151
:101C200004460C254FF00108124E0CB314F00100CD
:101C30000BD0002024F0010405FB00625768002F40
:101C4000F3D09168C0B2B847EFE7224601302028B0
:101C50004FEA520201D0D307F8D508FA00F20F2854
:101C600024EA0204E8D9103805FB0062B432E5E743
:101C7000BDE8F081F80D00202DE9F0410E469046B8
:101C8000054618B30F2923D80378E3B1012B03D0FD
:101C9000022B18D0032B1BD13F236A78D340DB07DC
:101CA00016D50D4BD3F81043A4B924F0CDF8074650
:101CB00042462846314601F01DFB384624F0BFF865
:101CC0002046BDE8F08140F2FF33E6E72224F7E743
:101CD0002124F5E70224F3E700C0035010B50446C1
:101CE000E8B10378C3B1012B03D0022B14D0032B2E
:101CF00017D13F236278D340DB0712D524F0A4F834
:101D00000122637821789A4030235943064B5A5078
:101D100024F095F8002010BD40F2FF33EAE72220BE
:101D2000F9E72120F7E700BF40D0035010B5044683
:101D3000E8B10378C3B1012B03D0022B14D0032BDD
:101D400017D13F236278D340DB0712D524F07CF80B
:101D50000122637821789A4030235943064B5A5028
:101D600024F06DF8002010BD40F2FF33EAE7222096
:101D7000F9E72120F7E700BF40E0035008B501F084
:101D8000AFFA054B00F0553020F05020C3F8200486
:101D9000BDE80840FFF742BF00E0035008B501F07E
:101DA0009FFA054B00F0AA3020F0A020C3F82004D1
:101DB000BDE80840FFF732BF00E00350184B2DE9A3
:101DC000F0411F6D5B6D1F4000D5FEE70126002529
:101DD000144CDFF85880374218D02368C8F8506098
:101DE000A3B1A168284601316268A1609847637B6E
:101DF000012B0BD150B90C4B03EB45131A7B60F34D
:101E000041021A731A7F60F341021A770135082DD7
:101E10004FEA460604F11004DDD1BDE8F08100BFB1
:101E20000000045060100020600F002000200450CB
:101E3000044BD3F88420D206FBD4D3F88400C0F33B
:101E4000811070470040005038B5174B0546D3F855
:101E500028310C4603F00703013B052B20D8DFE8AF
:101E600003F003131B0F0B1721F006FD052305B12B
:101E7000286004B1236038BD21F0FEFC0623F6E79C
:101E800021F044FD0723F2E721F036FD0323EEE7BE
:101E900021F032FD0423EAE721F02AFD0223E6E7E0
:101EA00000231846E3E700BF00800050002337B549
:101EB0000193164B0546D3F820320C4603F0070376
:101EC000042B21D8DFE803F0030B11161B000123BC
:101ED0000DB1019A2A6004B1236003B030BD002126
:101EE00001A8FFF7B1FF1223F2E721F00FFD07234E
:101EF0000190EDE723F094FF0A230190E8E721F039
:101F00004DFD09230190E3E70023E1E70080005045
:101F100038B5104B0546D3F880300C4603F0030368
:101F2000022B0BD0032B0DD0012B0FD121F0AAFCDB
:101F30000E2305B1286004B1236038BD21F0E6FC12
:101F40000723F6E721F098FC0623F2E70023184662
:101F5000EFE700BF0080005038B5104B0546D3F8BE
:101F600000310C4603F00303022B0BD0032B0DD0E2
:101F7000012B0FD121F0C0FC032305B1286004B16F
:101F8000236038BD21F00AFD0923F6E721F0BAFCF1
:101F90000823F2E701230020EFE700BF0080005094
:101FA00038B5184B0546D3F820010C4600F0070061
:101FB000062823D8DFE800F0040A0E16121A1E00C5
:101FC000012305B1286004B1236038BD21F054FC21
:101FD0000523F6E721F090FC0323F2E721F096FCBD
:101FE0000723EEE721F084FC0223EAE721F044FC1A
:101FF0000623E6E721F080FC0423E2E700231846ED
:10200000DFE700BF0080005038B5104B0546D3F81D
:1020100040310C4603F00303022B0BD0032B0DD0F1
:10202000012B0FD123F0FCFE0A2305B1286004B177
:10203000236038BD21F0B2FC0923F6E723F0F3FE5C
:102040000C23F2E701230020EFE700BF00800050DF
:10205000002337B50193164B0546D3F860320C4682
:1020600003F00703013B032B1FD8DFE803F0020E48
:102070001914002101A8FFF793FF10230DB1019A55
:102080002A6004B1236003B030BD002101A8FFF72E
:10209000BBFF1123F2E721F039FC07230190EDE7A4
:1020A00021F026FC02230190E8E70023E6E700BFC9
:1020B00000800050002337B50193164B0546D3F836
:1020C00094320C4603F00703013B032B1FD8DFE8D3
:1020D00003F0020E1914002101A8FFF761FF10237D
:1020E0000DB1019A2A6004B1236003B030BD002114
:1020F00001A8FFF789FF1123F2E721F007FC07236E
:102100000190EDE721F0F4FB02230190E8E70023C2
:10211000E6E700BF0080005038B5104B0546D3F805
:1021200060310C4603F00303022B0BD0032B0DD0C0
:10213000012B0FD123F074FE0A2305B1286004B1EE
:10214000236038BD21F02AFC0923F6E723F06BFE5B
:102150000C23F2E701230020EFE700BF00800050CE
:102160002E4B98424AD022D82D4B984240D014D8BA
:102170002C4B984239D00AD82B4B984232D02B4B5B
:1021800098422FD02A4B98422CD000207047294BE0
:102190009842FAD1284B186F7047284B98422AD0A2
:1021A000274B9842F1D1244BD3F880007047254B40
:1021B00098422BD009D8244B984223D0234B9842E5
:1021C000E3D11D4BD3F88C007047214B984221D0AE
:1021D00003F5740303F510539842D6D1164BD3F888
:1021E00098007047144B986D7047134B586E7047AA
:1021F000114B586F7047104B986F70470E4BD3F8C8
:10220000840070470C4BD3F8880070470A4BD3F812
:1022100090007047084BD3F8940070470048E801DD
:102220000024F400C0CF6A0080841E0000093D0035
:1022300040420F00405DC6000080E00FC0EA21016F
:1022400080BA8C01007E560380D54302006CDC020C
:102250000090D00373B50D460021114B0191D3F8C6
:102260008041064604F00304022C13D0032C0CD04A
:10227000012C13D101A8FFF793FE10240EB1019B8E
:10228000336005B12C6002B070BD21F03FFB072424
:102290000190F3E721F02CFB0190EFE70C46EDE70E
:1022A0000080005038B5104B0546D3F840320C463C
:1022B00003F00303022B0BD0032B0DD0012B0FD106
:1022C00023F0AEFD0A2305B1286004B1236038BDB8
:1022D00021F064FB0923F6E723F0A5FD0C23F2E7C8
:1022E00001230020EFE700BF0080005038B5144BF9
:1022F0000546D3F800020C4600F0070004281BD85E
:10230000DFE800F003090D111500012305B1286075
:1023100004B1236038BD23F083FD0A23F6E721F0E2
:102320003DFB0923F2E723F07EFD0C23EEE721F0CD
:10233000C9FA0F23800AE9E700231846E6E700BF41
:102340000080005038B5144B0546D3F808020C46FF
:1023500000F0070004281BD8DFE800F003090D1186
:102360001500012305B1286004B1236038BD23F0B6
:1023700057FD0A23F6E721F011FB0923F2E723F0CA
:1023800052FD0C23EEE721F09DFA0F23800AE9E7C6
:1023900000231846E6E700BF00800050B0F5207F1C
:1023A0001FD009D8B0F5007F15D003D868B1B0F5BB
:1023B000C07F0AD000200CE0B0F5607FFAD10B4B53
:1023C000D3F88000C0F3011003E0084B186FC0F38E
:1023D000033001307047054BD3F89000C0F3046020
:1023E000F7E7024B186FC0F38020F2E7008000503F
:1023F00002464FF48030104B10B598660020FFF76E
:10240000CDFF504341F671320C4BDC69DA635A68F8
:1024100004F4803422F4401259B90949884294BF27
:1024200000200120000502435A600CB10022DA634B
:1024300010BD0449F2E700BF0090005000000350B7
:10244000005A6202002D3101430905D0012B0CD046
:10245000022B084B18BF002300F01F0039B103F511
:102460008053012282401A607047034BF4E703F562
:102470000053F6E768800050648000501FB50021CB
:10248000B0F5807F0446CDE9001100F0D2803AD843
:102490005E2833D85E2833D8DFE800F04532323288
:1024A000323232323232323232323232323232320C
:1024B00032323232323232323232323245AC45ACE2
:1024C000BCBCBCBCBCACC64E6BDC4EACACAC3232A3
:1024D000323232323232ACACAC7EE6AC32323232F4
:1024E000323232323232323232BC454545E14E4E22
:1024F000EB8D63C132323232329E4500802870D07B
:10250000009804B010BDB0F5D06F00F0A38035D8AE
:10251000B0F5607F79D01AD8B0F5007F65D005D8C6
:10252000B0F5C07FECD121F0CDF95CE0B0F5207FB3
:1025300060D0B0F5407FE3D121F0C4F902464FF4FA
:102540002070FFF72BFFB2FBF0F252085BE0B0F512
:10255000B06F69D00AD8B0F5806F5BD0B0F5A06FCE
:10256000CED100216846FFF7A1FCC9E7B0F5C06FE6
:10257000C6D100216846FFF747FDC1E7B0F5106FEF
:102580006DD00ED8B0F5086F78D0B9D8B0F5E06F3F
:102590006AD0B0F5F06FB3D100216846FFF7BCFDFB
:1025A000AEE7B0F5406F3AD013D8B0F5206F60D0E9
:1025B000B0F5286FA4D10021324B0391D3F87032CB
:1025C00003F00303012B02D103A8FFF71DFD039BBA
:1025D00039E0B0F5486F93D100216846FFF76AFDF6
:1025E0008EE721F04FF900908AE721F04BF902467F
:1025F000204604E021F066F902464FF42070FFF710
:10260000CDFEB2FBF0F200927AE701A8FFF780FC62
:10261000019AEDE700216846FFF7C2FC70E7002150
:102620006846FFF711FC6BE700216846FFF712FED2
:1026300066E74FF0E02302911B695B0705D521F0A7
:1026400041F90290029B00935AE703A902A8FFF701
:10265000DBFCF7E700216846FFF748FE50E7002162
:102660006846FFF76FFE4BE700216846FFF71AFE4A
:1026700046E700216846FFF7EBFC41E76846FFF7B5
:102680006BFC3DE70080005008B58020FFF7F6FEA8
:10269000034B98429EBF4FF48032024B1A6708BD2D
:1026A000005A620200A000501FB503460020B3F597
:1026B000807F019000F0C58065D85D2B56D84C2BEB
:1026C00007D82D2B48D8232B2CD8019805B05DF8BE
:1026D00004FB4D3B102BF8D801A252F823F000BFA9
:1026E00039280008CB260008CB260008CB26000896
:1026F000E7270008CB260008CB260008932800080F
:1027000005280008AB27000889280008CB26000808
:10271000CB260008CB260008CB260008CB260008D5
:102720009D280008243B092BCFD801A252F823F0A2
:1027300039280008392800083928000839280008F5
:1027400039280008CB2600082F280008CB260008CF
:10275000C72700086F2800083D2B00F083803E2B20
:10276000B3D1002001A9FFF79DFDAEE7802BACD1CE
:10277000504B1B6F03F00703013B032BA5D8DFE889
:1027800003F0544D5052B3F5F06F6BD020D8B3F531
:10279000B06F4CD00ED8B3F5607F71D095D3B3F540
:1027A000806F49D0B3F5A06F8FD1002001A9FFF74A
:1027B0007DFB8AE7B3F5D06F59D0B3F5E06FD0D089
:1027C000B3F5C06F81D1002001A9FFF71DFC7CE7A4
:1027D000B3F5206F5DD00BD8B3F5086F4CD0B3F5CF
:1027E000106F7FF472AF002001A9FFF7ABFD6CE71B
:1027F000B3F5406F48D0B3F5486F4FD0B3F5286FAD
:102800007FF463AF2B4BD3F8703203F00303012B3B
:1028100049D0022B0CBF1523002300E005230193B0
:1028200053E70323FBE70823F9E70223F7E7002038
:1028300001A9FFF70FFD48E7002001A9FFF7B0FB52
:1028400043E74FF0E02302901B695B0705D521F0B9
:1028500039F80D230393039BE1E703A902A8FFF7CF
:10286000D3FBF8E7002001A9FFF756FC2DE7002075
:1028700001A9FFF73BFD28E701A9FFF76DFB24E75E
:1028800001A9FFF745FB20E7002001A9FFF7DCFACB
:102890001BE7002001A9FFF7DBFB16E7002001A9D9
:1028A000FFF708FC11E7002103A8FFF7ADFB112398
:1028B000B5E700BF008000504FF48032074B084955
:1028C000586E03F580535A664B6A23F001034B623E
:1028D000C3035CBF034B5A66704700BF00800050C3
:1028E00000C0075000A0005008B5FFF7DDFE092822
:1028F00011D00A38012802D94FF6FF7008BD4FF4F5
:102900008002064B5A6603F5D8335B6ADB07F3D5C2
:102910004FF4FA70F2E7024B1888EFE7009000508E
:102920008A30002008B5FFF7BFFE03280ABF024B1C
:102930004FF6FF70188808BD8830002038B504466F
:102940008020FFF7B1FE032800F083804FF480124F
:10295000524B4FF0A0615A6645F60E02504BC3F839
:102960008020504A91624FF4803102F5805291628A
:102970009A6DD203FCD4996D11F08041FBD1D4E95A
:102980000002120542EA0062E07B0243207B42EA39
:102990000042607B42EA0032A07B42EA80121A6168
:1029A0009869D4E90452120642EA856200F00040B8
:1029B0000243A07EE57E0243207E42EA0042607E22
:1029C00042EA00229A611A6AE06922F00F0242EAA2
:1029D0008502354D00283DD11A6294F82420996A69
:1029E00094F82000D200294042EA40120A4394F8A9
:1029F000211042EA011242F480329A622B49284A9D
:102A0000936D31EA0303FBD14FF080712548816259
:102A10001369A56823F4700343EA055313614FF06B
:102A20000043836194F822300BB9214B996294F8EA
:102A300023303BB94FF480321D4B9A62184A936D94
:102A40005B00FCD494F825301BB1154B194AC3F830
:102A5000802038BD024342F0080202281A6208D1E1
:102A600019614FF40852996113484FF47F4116F0F1
:102A700033FE0B4994F822308A6A94F820001B0632
:102A80002A4043EA4013134394F8242043EAC20344
:102A900094F8232043EA02438B62D3E7009000506E
:102AA0000040005A0050005AC7FFFEFE030001001C
:102AB0000060005AF1A7FFFF3440005A014B93F920
:102AC000000070479F300020F0B5D0E901434FF47B
:102AD00000061A4A4178057856664FF4D156022707
:102AE00002F5B8325662164E4F2977604FF0010753
:102AF00028BF4F2106F5805677601669F603FCD48F
:102B000041EA052151611B01417B43EA04230B4348
:102B1000017B43EA41039360C37B817B1B0143EA52
:102B20004113417C0B43017C43EA41035360837CA6
:102B300013B16FF4D1535362F0BD00BF0090005049
:102B400000100250014B1880704700BF8A300020EF
:102B5000014B1880704700BF883000204FF480027E
:102B600008B5184B5A660223174A5360936813F44A
:102B70008033FBD1012822D120F0BEFE134B9842B6
:102B800015D003F5122303F5F863984213D0104BC8
:102B900000EB8002400AB3FBF0F3520A0A49CA6212
:102BA0000B6301234B620022074B5A6008BD45F6B8
:102BB0007A13084AF2E745F61A03074AEEE753622A
:102BC000F1E700BF009000500040025000F04902C1
:102BD00064666666D8B80500BBCF0500B0F5207FF7
:102BE00010B50C465DD008D8B0F5007F4ED003D8A4
:102BF000C0B1B0F5C07F15D010BDB0F5607FFBD17E
:102C00002C4B4C1ED3F8FC202B4912F0807F4FEA4E
:102C1000041427D1D1F8803023F030032343C1F8C6
:102C20008030E9E716F067FD16F073FD4FF4803150
:102C3000224B214A1967136F013C23F4704343EA86
:102C40000433136720F03EFE0446FFF7F1F8C0F1AD
:102C50000201204616F057FD00F04AF8BDE810408A
:102C6000FFF712BDD3F8FC2022F08072C3F8FC20DD
:102C7000D1F8802022F030022243C1F88020D3F81E
:102C8000FC2042F08072C3F8FC20B5E70A4A4C1ED3
:102C9000D2F8903023F0F85343EA0463C2F890303E
:102CA000AAE7054A4C1E136F23F4806343EA84238A
:102CB0001367A1E700ED00E0008000500090005095
:102CC00008B50121022000F073F94FF42070FFF7DE
:102CD00065FB054B187016F00EFD16F01AFD4FF44B
:102CE0008032024B1A6708BDCF2C002000900050A4
:102CF00008B54FF4C070FFF7C1FBBDE808400449B8
:102D0000884294BF012102214FF42070FFF766BF73
:102D100080F0FA0238B5044620F0D4FD0546FFF7EE
:102D200087F8C0F10201284616F0EDFC01210020D1
:102D300000F07EF92CB1FFF7DBFFBDE83840FFF76C
:102D4000A3BC034B4FF420701978FFF747FFF4E75B
:102D5000CF2C00204FF4C02270B50546FFF700FAD3
:102D6000314B04465A6603F598335A68012A04D158
:102D70002E494A605A689207FCD48020FFF794FCE1
:102D8000052807D116F0B7FC16F0C3FC4FF48032CB
:102D9000254B1A67264B24F040749D4230D0254BBA
:102DA0009D4230D020F068FD8542064603D90121BE
:102DB000284600F03DF9204BDA6812F0060FFBD1EF
:102DC00099689C609A68624012F4F81F1ED12846E8
:102DD000FEF700FF8020FFF767FC05280DD120F0EB
:102DE00071FD0446FFF724F8C0F10201204616F0F9
:102DF0008AFCFFF77DFFFFF747FCAE420CD270BDA7
:102E000044F00074CEE744F08074CBE780209960F2
:102E1000FFF74AFC052805D0BDE8704001210020DD
:102E200000F006B93546DAE70090005000E00150A6
:102E300040420F0080841E0000000150304B314A98
:102E4000984251D020D8A3F5B703A3F55863984210
:102E500046D00DD82C4B984231D02C4B984239D0CB
:102E60002B4B4FF4002198421DD00023516622E0E5
:102E7000284B4FF400219842F7D1274BD3F8BC30B0
:102E8000516623F0407316E0244B984230D0244B17
:102E9000984231D0234B4FF400219842E5D11E4B8C
:102EA000D3F8C830ECE71C4BD3F8A030516623F0C0
:102EB000407343F000734FF0B442936070474FF497
:102EC0000021154BD3F8A030516623F0407343F036
:102ED0008073F0E7104BD3F8A0304FF40021CFE718
:102EE0000D4BD3F8B830F8E70B4BD3F8C030F4E70C
:102EF000094BD3F8CC30F0E7074BD3F8D030ECE7F0
:102F0000C0EA21010090005080841E0000093D00AD
:102F100040420F000024F4000080E00F0048E80168
:102F2000005A620280BA8C01024A536B0342FCD100
:102F3000704700BF00400950044A4178536F23F4A2
:102F4000407343EA01235367704700BF00400050BD
:102F50000E4A10B51369044643F00403136121F0CF
:102F6000E5FA16F0DBFB0A4B5B6E5B0142BF094BD7
:102F7000094AC3F8202430BF16F0D1FB01F058F9FC
:102F80001CB9BDE8104020F09DBC10BD00ED00E074
:102F90000080005000E003500000FF0F034A017959
:102FA000D36E23F030030B43D366704700400050CC
:102FB000F8B504461C4BD3F88420D106FBD4D3F8D3
:102FC0008430C3F381139C422CD020F05BFC012C95
:102FD000064602D1214616F096FB22F02CFF4FF058
:102FE0000072124B07465A66204616F09BFB4FF4C0
:102FF00080630D4D621E93402B676B6E9A0103D464
:10300000D5F884309B060AD5384622F00FFF022CF3
:1030100008D13046BDE8F840002116F074BBD5F861
:103020008430EAE7F8BD00BF004000500060005067
:1030300010B50C4608B920F025FC074B21461B783B
:103040003BB1064B984204D80120BDE81040FFF781
:10305000AFBF0220F9E700BFD02C0020005A620267
:103060000278034B012100201A70FFF7E1BF00BF77
:10307000D02C00204FF0004238B5244B244C5A6627
:103080004AF6CD33656C014605F00105236428BB83
:103090000120FFF749FF6368DB0715D51D4B58601A
:1030A00008461D4B226BD2070CD4984208D1072446
:1030B00015B1174B194A1A641EF0FDFB204638BDA6
:1030C0000130EFE79842F2D00024F1E70132236BA0
:1030D00013F0080305D08A42F8D1E8E700220E4930
:1030E000F5E78A42E3D020210A4A91620121A2F544
:1030F000805251600649084A886A800603D4934288
:10310000D5D00133F8E79342DDE700BF00900050CF
:10311000004009500060095040420F003254FFFF48
:103120004FF0004238B5164B01465A664AF6CD3389
:10313000144C154A656C236443780B205B0043F004
:103140000103D363FFF7F0FE63688A7823F4F87312
:1031500043EA02136360CA784B7943EA0223A3600F
:103160000A798B7943EA022323610878FFF782FF0B
:10317000EB0744BF054B23641EF09DFB012038BDC7
:103180000090005000400950004000503254FFFFB2
:103190004FF00042124B70B55D6E03F580535A66D6
:1031A0004AF6CD3304460F4980204E6C0B64FFF77E
:1031B000BBFE0B6A23F00F030F2C94BF234343F095
:1031C0000F030B62F30744BF074B0B64002DA2BF34
:1031D0004FF00042054B5A661EF06DFB70BD00BFFC
:1031E00000800050004009503254FFFF00A0005002
:1031F0004FF00042104B70B55D6E03F580535A6678
:103200004AF6CD3304460D4980204E6C0B64FFF71F
:103210008BFE0B6A23F4F85343EA04230B62F30793
:1032200044BF074B0B64002DA2BF4FF00042054B7B
:103230005A661EF040FB70BD0080005000400950EF
:103240003254FFFF00A00050013831289ABF024BD2
:10325000185C0020704700BF3A79020838B5C2F305
:103260000625044602F0070241B942EA052242F46B
:1032700040220634074B43F8242038BD1146284627
:1032800016F051FA02462846FFF7DEFF163442EAEE
:103290000022EFE7008003504FF48032064B5A665D
:1032A00003F5E6239B69C3F38512827003F03F02A6
:1032B0001B0B42700370704700900050014B986CDC
:1032C000D96C70470080E00F0122437801789A4062
:1032D00030235943014B5A50704700BF40E0035020
:1032E000034BD3F82424D3F820041040704700BFC8
:1032F00000C003502DE9F8431F4B0546D3F81033A7
:103300004B1E0E2B0E461746047890F8018026D9E6
:1033100051B34FF0000928461FB320F04FFB0F2197
:10332000B8F1070F04EB440488BFA8F108084FEA7E
:103330000414124895BF4FEA88084FEA88080434FD
:103340000C3409FA08F201FA08F1204416F008FAE0
:1033500086B9284657B1BDE8F84320F02FBB89460F
:10336000D9E7FFF7B1FFDAE78946D8E7BDE8F843C8
:10337000FFF7AABFBDE8F88300C0035030C0035078
:10338000054B9A689107FCD45A689207F9D4DA6918
:10339000002AF6D1704700BF00800A50034908B5E3
:1033A0004B6820F017FB02230B6108BD00800A5018
:1033B00008B5FFF7E5FF0122024B03F580514A6093
:1033C0001A6108BD00800A5008B5044B58680128EE
:1033D00003D1FFF7E3FF024B586008BD00800A509D
:1033E00000A00A5038B5074DFFF7CAFF6B680446C6
:1033F000012B03D1FFF7E8FFFFF7C2FF2378EB6053
:1034000038BD00BF00800A5010B520F0EDFAB8B901
:103410004A680B7812B1127843EAC2034A7843EA49
:1034200042038A6812B1127843EA8213CA7843EAE7
:1034300082030A6912B1127843EA4223014A936473
:1034400010BD00BF00800A504FF48032084B5A660E
:1034500003F5E6239B691A0B027003F03F024270EA
:103460004FF6FF72C3F3851342808380704700BF1D
:1034700000900050014B986CD96C70470080E00FB1
:1034800047F6FF739A42F0B56FD002296FD8394BD7
:103490005B5C012B6BD8384DDF0005EBC30415F8DE
:1034A0003330A178012B13D10025E078401AA842CF
:1034B00002D80844C0B2F0BD431B6668A0EB5303BA
:1034C00036F913609642D4BF1D4603F1FF30EEE794
:1034D00060680028EFD0B0F90040944204DBB0F9F6
:1034E00002409442B8BF144683883D44FF2B19BF65
:1034F000C8224FF0280CB0F90620B0F908C0A2EBA2
:1035000004030CBF0126002693FBFCF333446E78C2
:103510001BB29E4201DD002B01DA731E1BB24FF479
:103520007A7C01339BB2071D5D1E2DB24FEAC50E9A
:1035300000EBC505EA88AD689E4214FB025222EA00
:10354000E27202F15C02B2FBFCF204DD37F83350A8
:1035500001339542E8D200EB0E039888904228BFD1
:103560001046884238BF0846A4E7FF20A3E70020A2
:10357000A1E700BF6C790208E01000200229F0B535
:1035800055D82C4B585C012851D82B4C04EBC0016A
:1035900014F830004B6801280FD1C8788C7890421D
:1035A00094BFC4EB0001C4EB0201001BCAB282420B
:1035B000C8BF002233F91200F0BD002B37D0887845
:1035C000904202D3B3F90200F6E7CC78B3F90000D9
:1035D0009442F1D94C789988013CA1F1FF067142DF
:1035E00003F10405E4B2714103F10C07CEB2B44219
:1035F00016D805EBC1014FF47A756A43B1F9024060
:103600004968521A04EBD47102EB610292FBF4F2A6
:103610009042D1DBB3F902009042CDDC10B2CBE78F
:1036200037F831C04E1C9445E3D33146DEE70348FA
:10363000C2E700BF6C790208E01000200080FFFFA5
:10364000004870478C300020274B2DE9F0411B6863
:1036500021F0ACFA0128074620D922F0B1FE051E60
:1036600003DA01242046BDE8F081204B1B78002BB3
:1036700038D14FF050081E4C04EB0800A465C4F884
:103680005C8022F044FF206680B90124012FE9D933
:10369000284622F0ABFE0028E4DAE2E7134B1B7861
:1036A00003F0FF05002BE4D00024DBE70024114EDB
:1036B000214606F110033246012034607460B36085
:1036C000C6F80C8022F0D3FF30660028DDD003213D
:1036D000412016F0D6FB412000F066FB0122034B8F
:1036E0001A70D3E70024D3E78C2F0020D12C0020C0
:1036F0005C110020F810002008B54FF098435B6C77
:10370000D90208D521F052FA0238012803D8094B12
:10371000186E23F02BF84FF098435A6CD202FCD568
:103720005B6D054A03F4702313604120BDE8084037
:1037300000F048BBF81000208C2F00202DE9FF4737
:103740004FF000080E4617460446CDF800800028CA
:1037500059D022B90025284604B0BDE8F0870029D9
:1037600051D032F0030902F0030A1FD04FF0E0639A
:10377000C0E9003801230191C0F808800293C0F825
:10378000208049F0005301A9039322F0CEFB494663
:10379000204622F0A4FB204620F09AF9054628B1E5
:1037A0004A46414630461EF0BEFDD4E7BAF1000F4E
:1037B000D0D04FF000084FF0E063C4E90038012397
:1037C000CDF804D00293114B204601A9C4F808801B
:1037D000C4F82080039322F0A8FB0421204622F0A5
:1037E0007EFB204620F074F9054608B13A46D8E73A
:1037F000009A4E44EB00013522FA03F3AA4506F87D
:10380000013BF7D1A6E72125A5E700BF0400002072
:1038100090B189B101234B60C368013B012B08D8EB
:103820008269064B1AB10A6000208B607047044A17
:10383000F9E74FF00053F7E7212070470800002018
:10384000DC8A020806289ABF014B185C00207047EA
:10385000E48A0208F8B5184F3B7803F0FF0413B16F
:1038600000242046F8BD21F0A1F9012806461AD906
:1038700022F0A6FD051E1CDB3B786BB950230F4CD4
:10388000E018A465E36522F042FE2066012408B139
:103890003C700024012EE4D9284622F0A7FD002820
:1038A000B8BF0224DDE73B7803F0FF05002BD7D13A
:1038B000E4E70D24D5E700BFD22C0020C41100207E
:1038C00070B504460D4622F0BFFA0C2C064616D8F9
:1038D0000C2C18D8DFE804F01B1B171B1B2A171B26
:1038E0002E17311734000123194AA34013421DD16A
:1038F000062C2AD0DB0706D54FF4F06022E00D3C01
:10390000E4B2132CEFD9002321242B8009E080207E
:10391000FFF708F84FF6FF7398420CBF0E240024FF
:103920002880304622F08BFA204670BD00230F24F9
:103930002B80F6E74FF48060EAE74FF44060E7E75A
:103940004FF4C060FEF7D0FFE4E74FF4E060F9E722
:103950001C450D0030B58BB06C46864D864822F074
:1039600005FC0FCD0FC42B68844A2360FF238DF81C
:103970000130D2F84C3113F4802340F0EF80D2F8BC
:1039800050218DF801309DF801306C46FF2B08BFA7
:10399000252368467A4D8DF80130FFF795F83220DF
:1039A000FFF7D0F80FCD0FC40FCD0FC495E803007B
:1039B00084E80300714BD3F84C21120340F1B2802C
:1039C000A3F5FE431C88B4F5807F28BF64248DF8DE
:1039D0001940FFF773F8044484F3080469488DF82C
:1039E0001840FEF7FDF86846FEF7A8FF3220FFF703
:1039F000AFF86548FFF7AEF96448FFF71FFA644C6B
:103A0000644822F0B3FB0020FFF7A8F8FFF758F94D
:103A1000236F002023F0070343F003032367FFF71E
:103A200079F9236F5C4923F4744323675B4BD3F824
:103A3000FC2012F0807279D1D4F8803023F0030397
:103A400043F00103C4F88030C1F88020504CD4F812
:103A5000203123F0070343F00203C4F82031D4F8E7
:103A6000283123F0070343F00203C4F82831D4F8C7
:103A7000803123F0030343F00103C4F88031D4F80C
:103A8000403123F0030343F00203C4F84031D4F87B
:103A9000603123F0030343F00203C4F86031D4F82B
:103AA000403223F0030343F00203C4F84032D4F859
:103AB000003223F0070343F00203C4F80032D4F8C5
:103AC000083223F0070343F00203C4F80832D4F8A5
:103AD000703223F0030343F00103C4F87032D4F8CA
:103AE000203223F0070343F00103C4F82032FEF72D
:103AF000E3FE4FF0E0220020136943F0040313615A
:103B0000D4F8603223F0070343F00103C4F86032B5
:103B1000D4F8943223F0070343F00103C4F894323D
:103B20000BB030BDD3F85041E4B250E7D3F8FC20DD
:103B300022F08072C3F8FC20D4F8802022F0030227
:103B400042F00102C4F880200022C1F88020D3F89E
:103B5000FC2042F08072C3F8FC2077E74FF07E63D0
:103B600093F89C2093F99C30002BFFF60CAF8DF856
:103B7000012008E7088B02084C8B02080080E00F48
:103B80001C8B0208C017530200B4C404C0EA210110
:103B900000800050548B02080090005000ED00E0BF
:103BA00007B5094B18689A889B7900906846ADF86C
:103BB00004208DF80630FFF7B3FA0C20FFF7E8FA7F
:103BC000002003B05DF804FB448B0208012208B515
:103BD000034B1A7022F077FB024B186008BD00BF40
:103BE000D32C00202812002010B520F055FE0446EA
:103BF00022F019F9844207D922F071FB20B1012289
:103C0000024B1860024B1A7010BD00BF2812002032
:103C1000D32C0020F8B51F4C2378E3B122F053FBDE
:103C20001D4B1E4D1B68C01A28602B68A3B12B6862
:103C30002B6020F031FE4FF416725043184A00F505
:103C4000742000F23F20B0FBF2F02B682B68834217
:103C500004D900232370F8BD0123E9E71148124E6F
:103C60000378296856F82320104F511A3A68521ADF
:103C700029683A6046F823100A210932B2FBF1F2B2
:103C80000B4D0133DBB22A60B3FBF1F201FB1233BF
:103C90000370DEE7D32C00202812002058120020E9
:103CA00040420F00D42C0020301200202C120020A3
:103CB0005C120020014B1868704700BF5C120020A6
:103CC000064B074A996D11F0050F01D0117811B11B
:103CD0000028F7D170470120704700BF0040005A0C
:103CE000D52C0020164B10B51C6F14F0040111D018
:103CF000144A1167082191629B6DDA0701D4FFF71E
:103D000073FF00F005FA00F0E5F9012020F0FEFD58
:103D100022F0E7FAE30706D501220A4B1A67FFF7FC
:103D200079FF00F0D7F914F000521CBF054B1A6759
:103D3000002CBEBF4FF00042024B1A6710BD00BFFF
:103D40000040005A0060005A0028ACBF00F16040FB
:103D5000064B4FEA0111C9B2ABBF00F5614000F05C
:103D60000F0080F800131954704700BF14ED00E0F5
:103D700008B522F069F80B4B1A7872B901221A7053
:103D800022F05DF86FF0040210460132052152B2B4
:103D9000FFF7DAFF4C2AF7D108BDBDE8084022F052
:103DA0004EB800BFD62C0020002807DB01234109B4
:103DB000034A00F01F00834042F82130704700BFE3
:103DC00000E100E0002808DB01224309034900F07C
:103DD0001F008240603341F82320704700E100E07B
:103DE00073B5044622F027F8054622F074FB60B153
:103DF0000E4E3378FF2B8DF8073006D10DF10700FA
:103E0000FDF7FEFE9DF807303370094B28461C6015
:103E100022F00CF822F05FFB28B1224600209DF82A
:103E2000071015F054FC002002B070BDA030002037
:103E30006012002073B521F0FEFF0D4D0D4B2E7862
:103E40001C6821F0F3FF22F046FB38B1FF2E05D0AD
:103E50000020297801AA15F033FC019C2CB921F02F
:103E6000EAFF054B1C6821F0E1FF204602B070BD5F
:103E7000A0300020601200206412002038B50C46EB
:103E80001546014610B9FFF7D5FF01462B462246DD
:103E9000034801F05BFE0028D4BF3720002038BD66
:103EA000C19E010807B5684600F028F8DDE9000169
:103EB0000022034B03B05DF804EB16F03ABB00BFE1
:103EC0006812002007B5009313460A4601460348CE
:103ED00016F07DF803B05DF804FB00BF6812002007
:103EE00007B5009313460A460146034816F054FAF4
:103EF00003B05DF804FB00BF681200200249034ACA
:103F00000160521A42607047C8300020000004204F
:103F10000048704768120020BFF35F8F074B5A6A52
:103F200022F480325A62D3F8942022F00102C3F8BE
:103F30009420BFF34F8FBFF36F8F704700ED00E009
:103F400038B5FFF7E9FF284A2848D2F8C030284D95
:103F500023F0FF0343F0A003C2F8C030254B0468F0
:103F60009D4204F101011ED1234BC2F89840C2F8D2
:103F70009C3003F57F3303F2FE33C2F8A0300160BA
:103F8000BFF35F8F0522184BC3F894205A6A42F49E
:103F900080325A62BFF34F8FBFF36F8FBFF34F8FE3
:103FA000BFF36F8F38BD23F01F03203BB3F1005FD9
:103FB00009D3C2F89840104C43F00103C2F89C406A
:103FC000C2F8A03001600D4B0168074A23F01F03BF
:103FD00043F00303C2F89810C2F89C30084B01313B
:103FE000C2F8A030CBE700BF00ED00E09012002047
:103FF000602F0020602F0020030000207F2F002072
:10400000E1FF0320BFF34F8F0549064BCA6802F456
:10401000E0621343CB60BFF34F8F00BFFDE700BFEB
:1040200000ED00E00400FA05014815F046BB00BFB2
:104030009412002070B521F0FEFE184E0546184877
:1040400022F094F83378DBB900F044F9044620B14B
:10405000284621F0EBFE204670BD00F0ABF9FFF7DB
:10406000E3FF22F051F90F4B1C6020F015FC0E4BC2
:104070000E4A1860536F43F00103536716F079FA44
:1040800000F07AF816F08BFA094B0024186001232F
:104090002846337021F0CAFEDDE700BFE32C002084
:1040A000588B020898120020C012002000400050D7
:1040B0009C120020054B1B685843054B00F57420EB
:1040C00000F23F20B0FBF3F0704700BFC0120020A9
:1040D00040420F0010B5094B1B786BB1084C237898
:1040E00053B120F0C9F90023064A2370137001234D
:1040F000054A1370054A137010BD00BFE22C002062
:10410000DD2C0020DC2C0020D82C0020D72C002017
:10411000034B1B7813B10122024B1A70704700BF8A
:10412000E22C0020DD2C002073B5114E04463378BC
:1041300083420FD04FF400730E4DADF8043058B1E8
:1041400001A8FEF7F9FE4020FFF7B4FF2B68181A0C
:104150002860347002B070BD8DF8050001A8FEF72C
:10416000EBFE4020FFF7A6FF2B681844F0E700BFE6
:10417000A1300020C412002073B5002401A88DF8DE
:104180000440FEF76DFF2046224CFFF7CDFFD4F828
:104190000031214A03F0030313604FF480121F4BD8
:1041A0001F4D5A664FF400325A6620F0CDF81D4B71
:1041B0001B780BB3D4F8003103F00303022B23D098
:1041C000032B24D0012B17D11FF096FB024698B188
:1041D000154B164EDC6800231946C4F30B0401345A
:1041E00004EB84040138E4FB060112F07FFCFFF7C6
:1041F00061FF2B6803442B601F20FFF75BFF2B68D8
:1042000003442B6002B070BD1FF0C8FBDEE71FF057
:1042100079FBDBE700800050CC12002000900050BA
:10422000C4120020E62C002000C0015040420F00C4
:104230000122114B10B55A67104B114C1B78A3B1DA
:10424000022022F050F880B120F04AFB68B1A36D43
:10425000D90302D5E36D9A0703D4094B9B6DDB07A5
:1042600004D54FF48032044B9A6210BD0122054BF5
:104270001A70FFF7ABFCF4E70050005AE72C00205F
:104280000040005AE42C002008B515F0EBF9034B70
:104290001868BDE8084022F020B900BFD8120020FD
:1042A00030B5094D8BB001AC0FCD0FC40FCD0FC48D
:1042B0002B68002101AA0548236022F0B9F8044BBD
:1042C00018600BB030BD00BF6C8B0208894200083B
:1042D000D812002070B521F0B7FD144E0546347891
:1042E000FCB9134B1C60134B1C60134B1C6000F09B
:1042F0002BF8012022F00DF820F0D4FB0F4B0246E2
:10430000186020B9284621F09AFD232070BD23466D
:1043100040F2E7310A4812F0E9FB0A4B186001232A
:104320003370284621F08BFD0020EFE7EA2C0020B7
:10433000E4120020E0120020EC120020E81200201D
:1043400018FCFFFFDC12002010B5002486B01422F8
:10435000214601A88DF800401DF0E5FF0123134818
:104360008DF8043021F002FFBFF34F8F6846FFF74E
:1043700039F8204601A98DF80440FFF745F820469A
:104380000F211FF043FB0F2120461FF045FBFFF7D5
:104390000FF81FF01FFB064B43209C61FFF712FD37
:1043A0004320FFF701FD06B010BD00BF4C8B020893
:1043B00000800A5008B50A4821F0D8FE40F60152A4
:1043C00000210120FEF74AFF4FF4967200210120E0
:1043D00015F0BAF94FF48072024B9A6408BD00BF21
:1043E000508B020800900A507FB5044605F060FA31
:1043F000002846D10323A38340F2FD5323830423E3
:104400000126A376A368A67743F48013A36016F071
:10441000FEF8A368A0801B030CD4B0F5FA7F09D97D
:1044200021F009FD0546314630461FF013FE2846AF
:1044300021F0FCFC204605F067FA18BBE06818B3D1
:1044400006F00AFB04F05EFA17F026FC18F016FDE1
:104450000E4A01AB10685168127A03C301A81A70A2
:1044600017F020FD70B902460146042019F0E8FE5D
:104470000321042002F0A4FB0A2001F077FB16F0D0
:10448000D3F8002004B070BD0148D9E7908B020832
:10449000A430002038B5054621F0D6FCAC688CB9B4
:1044A00021F0CDFC4FF0FF31686822F031F900288F
:1044B000F2D0063006288EBF0124054B1C5C44F068
:1044C000004403E00023AB6021F0B9FC204638BD76
:1044D000998B020870B50446084D094E2046FFF737
:1044E000D9FF2B6803F03803202B02D1284615F0A2
:1044F000C0F80821304616F099F8EFE7EB2C0020C1
:10450000141300202DE9F0471C4607460E461546B9
:1045100021F0E1FFDFF86890D9F80030834207D13D
:1045200023462A4631463846BDE8F04708F06EB8C3
:10453000DFF85080D8F8000022F040F90B4B4846D5
:104540001F600B4B04211E600A4B1D600A4B1C6050
:1045500005230A4C236016F069F84FF0FF31D8F8B4
:10456000000022F0D5F82068BDE8F0873013002065
:104570002C130020281300202413002020130020D7
:1045800014130020F012002010B50748074C16F055
:1045900064F8074816F061F8236823B1206822F018
:1045A0004EF80023236010BD08130020F8120020ED
:1045B000FC1200202DE9F041054608242846FFF7AB
:1045C00069FF0443E607F9D50BF036F805460028E5
:1045D00035D1394A137803F0FD0343F00403137017
:1045E000364E374FDFF8F480E3062BD50024354EE6
:1045F0000BF030F8FFF7C8FF7068346022F0EFF876
:1046000001226FF05F012C4B74601A702E4B1878EA
:1046100019705978002D48D00321597099789A70F3
:10462000DA780622ADB2DA709D809C71264815F0CA
:1046300020F821F050FFBDE8F04121F04EBF44F0DA
:104640001004CDE760070FD520493368D8F8002063
:104650003868096807F0DAFF1D4B24F0040418607D
:104660001C4B186822F082F80AF098FE21070ED53C
:104670001CF0E2FF58B114481CF098FF0028B3D199
:104680004FF48031144824F0080415F0CFFF1CF0DB
:10469000EDFF08B92207A7D40A48FFF7FBFE044341
:1046A000A2D50AF07BFE0824E2E75D7099789A7043
:1046B000D978DA70BAE700BFEF2D0020241300206C
:1046C0003013002014130020EB2C00202C130020AA
:1046D00020130020F0120020FC12002028130020DC
:1046E00038B5002101200B4A21F0C1FF0A4C20609F
:1046F000236853B1094821F00AFF094B18601D686F
:104700002DB9206822F06BF82560012038BD00200B
:10471000FCE700BF588C0208F0120020688C0208E9
:10472000F412002010B5134C1348236821F0EFFE5B
:1047300020602368E3B1114B114A1249124815F069
:104740009BFF044690B9114B114A1249124815F0CB
:1047500093FF044650B9114B114A1249124815F003
:104760008BFF044610B9114807F0D4FE204610BD57
:104770000124FBE7F8120020788C0208008D020863
:10478000B5450008F08C020814130020CC8C0208F8
:104790004BA60108BC8C020808130020988C020864
:1047A000D5440008888C0208FC120020054500084A
:1047B0004FF48071014815F039BF00BF0813002085
:1047C0000221014815F032BF1413002008B51FF074
:1047D000EBF8B0B90E4B187810F0010010D021F0B2
:1047E0007AFE0C4B1B6883420DD00B4B4FF0FF3110
:1047F000186821F0C9FE0630062806D8074B185C59
:1048000008BD1420FCE72020FAE70120F8E700BFEC
:10481000EF2D002014130020F4120020998B0208C1
:1048200008B5084B1B78DB070BD521F054FE064B6F
:104830001B68834205D0054B1868BDE8084021F08D
:10484000C8BE08BDEF2D002014130020F412002074
:10485000024A137843F0010313707047EF2D0020D4
:1048600008B5FFF73DFF044904480AF0ADFEBDE876
:1048700008400AF0DBBE00BF248D0208BC8D020890
:10488000002307B50193054B1B6822F086FC019BB2
:10489000002BFCD003B05DF804FB00BF942F002078
:1048A000EFF305830F2B84BF034A9B5C4FF0E0239B
:1048B000D3F80C3D704700BFF0E300E013B50446A9
:1048C00021F001FD0D4B0E4A1B6811689C4228BF68
:1048D0001C460C4B421A1B6863439A4238BFC918E6
:1048E0004FF0000334BF091A0121CDE90033064A15
:1048F000064821F0C4FC02B010BD00BF001F00201C
:10490000041F0020081F002011490008D81E0020A5
:104910002DE9F04121F0D7FC064622F03EFC124B77
:1049200005461C7874B9114FDFF844803B68D8F80D
:104930000020F31A93420AD20CB122F0FBFB0120B3
:10494000FFF7BCFF2846BDE8F04122F031BC20F063
:10495000C7FB3B68D8F800202043134414BF012450
:1049600000243B60E2E700BF902E0020041F0020DF
:10497000081F002008B500216FF0040015F081FA2F
:104980001FF08AFF4FF47A7300F2E730B0FBF3F0C8
:10499000084B094A18604FF0FF33B3FBF0F30A3BB2
:1049A000136021F090FC054B18600120BDE8084021
:1049B000FFF784BF081F0020001F0020041F0020F5
:1049C000F8B5044601250E4E0E4F30463D701FF0DF
:1049D000CBFE2046FFF772FF204615F072FE0A4B11
:1049E0001C600024094B1C601FF08CFB30463C709F
:1049F0001FF0BAFE2846BDE8F840FFF75FBF00BFD2
:104A0000D81E0020902E0020FC1E0020F81E002042
:104A100010B50A46044619B1024B00211B6898479D
:104A200010BD00BF982F0020F8B50D4E0D4C0E4D57
:104A300033680E48984767782B680C489847336866
:104A40000B489847022F08D12478E31F5C425C4151
:104A50002B68074898472046F8BD0024F8E700BFB8
:104A6000A02F00200C1F00209C2F00206C1F002076
:104A7000D01F00200E4B0340B3F1607F06D1B1F58B
:104A8000885F14BF6FF0860000207047B3F1707F1D
:104A90000BD101F4E043B3F5005F06D111F4E06FF0
:104AA0000CBF6FF08600002070476FF086007047E3
:104AB0000000C07F8A42F8B507460C4600F0198115
:104AC0008F4922F4FF7323F001038B420ED08D4BEC
:104AD00022F0FF01994209D08B4822F47F7323F022
:104AE0000303834202D0894B994228D1884B24F09A
:104AF000FF0199420FD114F0FF000BD0854B40F01D
:104B00000070984240F0F78082EA0400FF288CBFD2
:104B100000200120F8BD7B4B9942ECD0A3F58853CF
:104B20009942E8D024F4FF7323F00103B3F1062F78
:104B3000E1D076488142DED073498B42DBD004F06D
:104B4000FE43B3F1A06F14D102F0FE43B3F1A06FA6
:104B500040F0D18082EA040333F47E1340F0CB802E
:104B600014F40040D6D0C4F30540C2F3054290428D
:104B7000CDE7B3F1407F40F0A88002F0FE43B3F1EF
:104B8000407F40F0B88082EA040535F47E1540F09D
:104B9000B28039462046FFF76DFF002840F0AB8019
:104BA0005D4B12F47C1603EA020319D0B3F1607F67
:104BB000C2F3054679D15949D3B243F000738B4211
:104BC00077D003F17E43043B0F2B5CD8DFE803F082
:104BD0005A5A5B716567696B65675B5B6567696B93
:104BE000B3F1607F34D14D49D3B243F000738B42AF
:104BF00044D003F17E43043B0F2BDCD801A151F8D4
:104C000023F000BF814C0008814C0008B74B00081E
:104C10007D4C0008FB4C0008454C0008494C00083E
:104C20004D4C0008FB4C0008454C0008B74B0008F1
:104C3000B74B0008FB4C0008454C0008494C0008E5
:104C40004D4C00082026B6E73026B4E74026B2E7F0
:104C5000B3F1707F17D107F4E043B3F5005F03D1E0
:104C60000126C7F302239E4007F4E043B3F5005F3B
:104C700009D10125C7F302218D4004E010269AE7EF
:104C8000142698E7142514F47C1FC4F3054312D1AD
:104C9000B54214BF002001203CE71C25F3E7202586
:104CA000F1E73025EFE74025EDE7B3F1707FEAD17A
:104CB000DAE71025E7E712F47C1F01D1AB4218D0E8
:104CC00022047FF527AFB34221E7B3F1106F12D171
:104CD00024F01F6020F4702068B902F0FE43B3F1A5
:104CE000106F7FF417AF0E48104040F01060A042E4
:104CF000CFE701200EE700200CE71C265BE700BF92
:104D00000002000600130006000400060009000669
:104D100000030006FF0000020000C07F0300000245
:104D20000000FFF637B505460C46FFF77DFE78B16B
:104D30000023224601932946074801AB14F057FF90
:104D400020B9019BA34218BF6FF0930003B030BDA0
:104D50006FF08800FAE700BF101F00202DE9F8432C
:104D6000884617461C4600F00FFC054688BBD8F85D
:104D70000060B6F8009009F4E043B3F5804FB368E3
:104D800008BF27F0010737EA03031AD10CB3254BFC
:104D900024F0FF029A421FD114F0FF0304D0224AEC
:104DA00043F00073934232D022464846F168FFF741
:104DB00081FE074668B9224648463169FFF77AFE08
:104DC00070BB6FF0840500233046C8F8003000F057
:104DD0000BFC2846BDE8F883144B9A42DCD0A3F5BF
:104DE00088539A42D8D024F4FF7323F00103B3F11F
:104DF000062FD1D00E498A42CED00E4A9342CBD054
:104E000004F0FE43B3F1407F04D12304CCD56FF00E
:104E10008605D8E7B3F1A06FF7D0034B9C42C2E7F9
:104E20003D46D6E700030006FF000002001300061F
:104E30000009000600040006114B70B51B6805460A
:104E400010480E469847044618B16FF08F0420466C
:104E500070BD6B6933602B7E012B04BF02232B7660
:104E6000094B18BF30601B68064818BF6FF09604E6
:104E700098470028EBD0002CE7D06FF09604E6E7C7
:104E8000A02F0020342000209C2F002000F0FE43A3
:104E9000B3F1407F70B504460E4619D1FFF7EAFD25
:104EA00000285ED114F47C1F15D0C4F30543032BF6
:104EB000137054D9554D2540B5F1607F40F0938073
:104EC000534AE4B244F00074944256D1102B48D9AE
:104ED0006FF0860045E04D4B2340B3F1607F39D140
:104EE0004B4BE4B244F000749C4202D11023137087
:104EF00037E004F17E44043C0F2C2ED801A353F874
:104F000024F000BF454F0008454F00085B4F0008E4
:104F1000ED4E000809500008494F00084D4F0008A9
:104F2000514F000809500008494F00085B4F000826
:104F30005B4F000809500008494F00084D4F00081A
:104F4000514F00081423D2E7202307E0302305E067
:104F5000402303E0B3F1707F04D0002313706FF09F
:104F6000850070BD01F4E043B3F5005FF5D1012386
:104F7000C1F302218B40DBB299E704F17E44043C8B
:104F80000F2CA5D801A252F824F000BFDB4F000877
:104F9000DB4F0008D14E0008CD4E00080550000838
:104FA000CD4F0008DF4F0008E34F00080550000810
:104FB000CD4F0008D14E0008D14E00080550000822
:104FC000CD4F0008DF4F0008E34F000820218B423F
:104FD0003FF67EAF142BC4D9C1E7142B77E73021FD
:104FE000F5E74021F3E7B5F1707F7FF471AF06F488
:104FF000E042B2F5005F7FF46BAF0121C6F30222FD
:105000009140E4E71C21E2E71C23A7E70000C07FF2
:105010000300000200232DE9F3414768D0F8148013
:1050200005460E4638461146136015F019FE044633
:1050300088B9384615F016FE044660B9FFB277B954
:10504000B8F1000F05D1AB6823F47F4323F00303CD
:1050500063B16FF08604204602B0BDE8F0810146DE
:10506000686915F0D7FD0028EDD1F2E74FF6F87327
:105070006A889A4227D8154B15481B682F7998479C
:1050800010B16FF08F04E6E707B901A8314600F0D0
:1050900029FA104B04461B680D48984710B1002CA4
:1050A000D9D1EEE7002CD6D10FCDD6F800C0664698
:1050B0000FC695E8030086E80300002FCBD1019BC3
:1050C000CCF81430C7E76FF08504C4E7A02F0020A8
:1050D000342000209C2F002010B5044660B1074BFF
:1050E00007481B689847204615F0ADFBBDE8104007
:1050F000044B03481B68184710BD00BFA02F0020B9
:10510000342000209C2F002037B50446C0B101A9EF
:1051100000F03AFA044698B9194B1A481B689847A8
:10512000194DF0B90198037E032B11D115F083FDC1
:105130002B6804461348984728B10CB96FF08F04C8
:10514000204603B030BD002C08BF6FF08704F7E79E
:10515000022B12D1032303760379FF2B08BF6FF0D4
:105160008404019815F067FD2B68002818BF0446D9
:10517000044898470028E3D0DFE76FF09604F0E793
:10518000A02F0020342000209C2F00202DE9FF417B
:1051900005469846002303932B6808461746002BC4
:1051A00055D1B8F1000F134603A914BF4FF4806224
:1051B0004FF40062FFF7D2FD0446002849D1039E58
:1051C000384631882A1DFFF761FE0446002840D189
:1051D0006B7968F300036B717168D6E90823090ADB
:1051E000B8F1000F1FD0012913D02048814201D00F
:1051F000002938D13146009705F1080014F029FE46
:10520000044630BB042303982B6000F0EDF90446FC
:1052100025E03146009705F1080014F00BFE044626
:10522000B8B90523EFE701290AD01048814200D020
:10523000C9B93146009705F1080014F00DFEDFE70B
:105240003146009705F1080014F0F7FDE7E76FF02D
:105250008804284615F087FB039800F0C5F920461E
:1052600004B0BDE8F0816FF08604F2E70200800030
:1052700070B51C4E1C4C33681C489847237858075F
:1052800044BF23F0040323702378990705D500F069
:1052900013F9237823F002032370154D13482B686C
:1052A000984733681348984763781BB10023124A24
:1052B00063605360002308210F486370FFF7A8FB69
:1052C0002B680C4898473368084898472378074864
:1052D000DA0744BF23F0010323702B68BDE8704058
:1052E000184700BFA02F00200C1F0020D01F002057
:1052F0009C2F00206C1F0020101F00202DE9F04182
:10530000FFF792FB18B100242046BDE8F081364F2C
:1053100036483B689847044620B16FF08F04FFF78A
:10532000A7FFF1E7324D2B78D8070AD414F054FCCC
:10533000044610B914F059FC04462B7843F00103DD
:105340002B702C4E29483368984710B1002CE4D0BC
:10535000E5E7002CE3D13B68244898470446002841
:10536000DBD12B78990706D400F09EF804462B7801
:1053700043F002032B7033681C4898470028E5D19E
:10538000002CCCD13B68194898470028C5D1336818
:10539000164895F8008098470028BED13B6816480B
:1053A00098470028B9D16B783BB918F0010F04D0A9
:1053B000124B6C605C6002236B7033680E48984738
:1053C0000028AAD13B68094898470028A5D12B7826
:1053D00006485A075CBF43F004032B7033689847B4
:1053E000002890D099E700BFA02F0020D01F0020F8
:1053F0000C1F00209C2F00206C1F0020101F00207D
:1054000038B5074C074B20461B689847064B20468B
:1054100093F85050054B1B689847284638BD00BF8D
:10542000D01F0020A02F0020181F00209C2F00203C
:1054300000F14042012A38B504460D460CD8282117
:10544000174B01FB02331A7E022A02D15A698242AB
:1054500015D06FF08B001CE0012115F0DBFBC8B10B
:105460000F4B1A7E022A02D15A69944207D093F850
:105470004020022AEDD1DB6B9C42EAD1094B1A7E17
:10548000022A0AD1DA69511C07D000200132DA6100
:105490002B6038BD6FF08700FBE76FF09600F8E7F0
:1054A000181F0020401F00200122024B002083F81B
:1054B00050207047181F002070B501260325084CA6
:1054C0002046E661257615F0BEF904F128006664F1
:1054D00084F8405015F0B7F9002384F8503070BDBF
:1054E000181F0020F8B506460F46FFF789FF002871
:1054F0003CD0234C237E1BB3022B15D1E3699BB90F
:1055000023798BB194F840305BB325462B7E022B78
:1055100004D1EB695A1C1CBF0133EB61284615F01E
:1055200092F970B100251AE094F84030E3B1022BF3
:105530001FD1636CEBB994F82C30D3B1114DE5E772
:1055400025462B7EC3B901232B763EB12C1BE410DC
:1055500003F1CC335C4304F18044346000203D60AF
:10556000F8BD04F12805ECE7064DEAE76FF0880086
:10557000D8E76FF08C00D5E76FF09600D2E700BF58
:10558000181F0020401F0020002370B50B60044648
:105590000D46FFF735FFE8B1104B11481B689847DF
:1055A000064668B920462946FFF742FF0D4B10F129
:1055B0008C0F04461B6807D00948984710B10CB9F6
:1055C0006FF08F04204670BD05482E6098476FF03D
:1055D0008704F7E76FF08804F4E700BFA02F0020EE
:1055E000342000209C2F00200B4B10B51B68044674
:1055F0000A48984718B16FF08F04204610BD204626
:1056000015F019FB064B04461B6804489847002810
:10561000F3D0002CF1D1EEE7A02F002034200020A1
:105620009C2F00202DE9F04F9B4691B00B1E0A9352
:10563000AD4B904614BF8146994600241A9E9BF8B4
:10564000000070B9444538BF224643464FF0000081
:105650000A9928BF08F1FF32C847204611B0BDE8BB
:10566000F08F25280BF1010B06D0224643460A99FC
:10567000651CC8472C46E2E700230DE02D2A2AD0FE
:10568000302A06D0303A092A4FF0000711D80A25EF
:1056900032E043F001038B46594611F8012B2B2AC7
:1056A0001CD0EBD8202A1CD0232A1DD02A2A2BD08C
:1056B00000279BF800202E2A64D19BF801100BF1E3
:1056C0000102A1F13000092843F4806351D800257C
:1056D0004FF00A0C26E043F00203DCE743F004033A
:1056E000D9E743F00803D6E743F01003D3E78B462E
:1056F00005FB0722A2F13007594611F8012BA2F150
:1057000030000928F3D9D4E756F8047B8B46002FE4
:10571000BCBF43F002037F42CBE702460CFB0511FE
:10572000A1F13005104610F8011BA1F1300EBEF1B9
:10573000090FF2D9114611F8010B6C282CD024D88E
:10574000682830D06A2837D011468B461BF8010BE9
:10575000672875D857284BD8452807D085D94628BB
:1057600000F03181472880D143F4006343F02003E7
:105770003FE12A2907D156F8045B0BF1020225EA22
:10578000E575D7E75A460025D4E7742801D07A2872
:10579000DAD143F48073D8E750786C28F9D143F418
:1057A0004073911CD1E75078682802D043F0800301
:1057B000CBE743F0C003F4E743F40073C5E70A2ADC
:1057C00000F06281072A7FF450AF43F02103059374
:1057D0000823CDE903531023CDE9011356F8043B08
:1057E00022460093484643460A9915F026FBFAE004
:1057F000A0F158020F2A3FF638AF01A151F822F06C
:10580000715800086B5600086B5600086B5600086C
:105810006B5600086B5600086B5600086B56000864
:105820006B5600086B56000871580008115A0008A2
:1058300071580008EB590008CB590008EB590008D3
:10584000A0F16902D2B20F2A3FF60FAF012149F24F
:10585000410C914011EA0C01B1D0782803F4806129
:1058600022D1002900F0908023F00D02102307E0E0
:10587000622803F4806220D142BB23F00C02022391
:1058800012F4007100F08380CDE907720022CDE9A7
:10589000043206F1070A2AF0070A06950292FAE88E
:1058A0000223CDE900233DE06F2812D123F00C0242
:1058B00009B123F00D020823E2E7582816D1002A87
:1058C00039D123F00C0242F02002CFE723F00D0281
:1058D000D5E7692823F0100230D023F01C0209B16B
:1058E00023F01D020A23CBE779AC010842BB23F069
:1058F0001002930527D5073626F00706B2467168D1
:105900005AF8083B0A26CDE907720027CA0F00297A
:10591000CDE904670695029202DA5B4261EB410130
:10592000CDE900314346224648460A9915F0C8FAA7
:105930000446564683E623F00D02C4E70029D8D07A
:1059400023F01102D5E7D00506F1040A01D533682A
:1059500002E0510613D53378CDE904720A22002BF8
:1059600002924FEAD37203950192B8BF5B42009353
:105970004346224648460A9915F05FFAD8E71306CF
:10598000E5D5B6F90030E7E723F00C026EE7D00565
:1059900006F1040A06D5CDE90472CDE9023501917C
:1059A0003368E4E7510608D53178CDE902350023A4
:1059B000CDE90472CDE90013DAE7316812F0800F07
:1059C00018BF89B2F1E743F02003CDE90173073630
:1059D00026F007060095B6EC020B434622464846E1
:1059E0000A99FAF781FD044629E6672801D143F4B4
:1059F0000063CDE90173073626F007060095B6EC83
:105A0000020B4346224648460A99FAF7B1FBEAE7F9
:105A100013F0020523D04FF0010A631C0B932246BA
:105A200043460A9916F8040BC8475DB354460B9ACF
:105A30001EE0434620200A99C8470AEB04020AF1F7
:105A4000010A5745F5D8002F07F1FF3308BF00239F
:105A500007F1010A1C4408BF4FF0020ADDE7AA461D
:105A6000EBE7551C434620200A99C8472A460134D3
:105A7000BC42F6D3A7EB0A03574538BF00230B9A65
:105A80001A440B920B9CDAE53246002D52F8046B57
:105A900014BF29464FF0FF310B9232463144107843
:105AA00008B18A4211D1A2EB060A13F480620C926B
:105AB00002D0AA4528BFAA4613F002030D931BD1BA
:105AC000AAEB040322460F9308E00132E7E7531CD8
:105AD0000E93202043460A99C8470E9A0F9BD3186D
